:020000040000FA
:100000000C945D000C947A000C947A000C947A00A5
:100010000C947A000C947A000C947A000C944901A8
:100020000C947A000C947A000C947A000C947A0068
:100030000C947A000C947A000C947A000C947A0058
:100040000C94A5010C947A000C947A000C947A001C
:100050000C947A000C947A000C947A000C947A0038
:100060000C947A000C947A00000000080002010051
:100070000003040700000000000000000000000072
:10008000240027002A0001020408102040800102F9
:1000900004081020010204081020000000002500C0
:1000A00028002B00040404040404040402020202D5
:1000B0000202030303030303020011241FBECFEF58
:1000C000D8E0DEBFCDBF11E0A0E0B1E0EAE6F6E0A7
:1000D00002C005900D92A230B107D9F721E0A2E04D
:1000E000B1E001C01D92AC31B207E1F70E94EF010F
:1000F0000C9433030C9400009091000189130DC0FF
:10010000E8EBF0E0E4919FEF90930001E13009F417
:1001100031C068F1E23009F433C090E0FC01E859E5
:10012000FF4F2491FC01EA57FF4F3491FC01EC553D
:10013000FF4FE491EE23D1F0222351F0233009F454
:100140003AC078F5213009F43CC0223009F43DC0B2
:10015000F0E0EE0FFF1FE656FF4FA591B4918FB769
:10016000F894EC9130953E233C938FBF0895109204
:100170006E00D3CF90916F009D7F90936F00CDCF95
:10018000909170009D7F9093700091E09093B000EB
:100190009091B100987F94609093B1001092B30059
:1001A000BCCF2730A9F02830C9F0243089F68091DF
:1001B00080008F7D03C0809180008F7780938000C6
:1001C000C7CF84B58F7784BDC3CF84B58F7DFBCF78
:1001D0008091B0008F778093B000BACF8091B0004B
:1001E0008F7DF9CF3FB7F894809107019091080176
:1001F000A0910901B0910A0126B5A89B05C02F3F27
:1002000019F00196A11DB11D3FBFBA2FA92F982F3C
:100210008827BC01CD01620F711D811D911D42E037
:10022000660F771F881F991F4A95D1F708958F92FF
:100230009F92AF92BF92CF92DF92EF92FF924B01CB
:100240005C010E94F2006B017C010E94F2006C19BB
:100250007D098E099F09683E734081059105A8F3C9
:1002600021E0821A9108A108B10888EEC80E83E047
:10027000D81EE11CF11C81149104A104B10429F7DA
:10028000FF90EF90DF90CF90BF90AF909F908F90B6
:1002900008951F920F920FB60F9211242F933F9340
:1002A0004F935F936F937F938F939F93AF93BF937E
:1002B000EF93FF938091100190911101A091120191
:1002C000B0911301892B8A2B8B2BD1F190910B01CB
:1002D000E0910C01F0910D0180818927808380914C
:1002E000100190911101A0911201B0911301181603
:1002F00019061A061B069CF48091100190911101B9
:10030000A0911201B09113010197A109B109809345
:10031000100190931101A0931201B0931301FF916A
:10032000EF91BF91AF919F918F917F916F915F916D
:100330004F913F912F910F900FBE0F901F901895E6
:10034000809100010E947C00EACF1F920F920FB6AD
:100350000F9211242F933F938F939F93AF93BF934B
:100360008091030190910401A0910501B0910601D3
:100370003091020123E0230F2D3758F50196A11D7E
:10038000B11D209302018093030190930401A09377
:100390000501B09306018091070190910801A09199
:1003A0000901B0910A010196A11DB11D80930701B9
:1003B00090930801A0930901B0930A01BF91AF91F6
:1003C0009F918F913F912F910F900FBE0F901F9093
:1003D000189526E8230F0296A11DB11DD2CF78945F
:1003E00084B5826084BD84B5816084BD85B582603A
:1003F00085BD85B5816085BD80916E0081608093EB
:100400006E00109281008091810082608093810053
:100410008091810081608093810080918000816063
:10042000809380008091B10084608093B1008091BE
:10043000B00081608093B00080917A0084608093E6
:100440007A0080917A00826080937A0080917A00AD
:10045000816080937A0080917A00806880937A002E
:100460001092C100C9E8D0E007EA10E0FAE0CF2E10
:10047000FEE8DF2EA8EBEA2EA0E0FA2EB0E06B2E0D
:10048000B0E07B2E88248A94982C540193E0492E66
:10049000EDE85E2E809100018330C9F4F70184916C
:1004A00087FF5BC06CED75E080E090E00E94170173
:1004B00083E00E947C0064EF71E080E090E00E94A5
:1004C00017016114710431F30E940000E1CF8F3FE6
:1004D00049F740920001F70184918F3F19F3813071
:1004E00009F475C018F18230D9F61092B00010925C
:1004F000B1009091B00092609093B0009091B100E3
:1005000091609093B100F8019491E92FF0E0EE0F23
:10051000FF1FE656FF4F2591349130930D01209334
:100520000C01FE01949190930B0117C014BC15BCF3
:1005300084B5826084BD85B5816085BDF8018491F4
:10054000E82FF0E0EE0FFF1FE656FF4F85919491E4
:10055000FE01849180930F0180E0FE019491F801E7
:100560002491222399F030E0220F331FF901E4583F
:10057000FF4FA591B491F901E656FF4F25913491B3
:100580002FB7F8943C91932B9C932FBF882309F4A9
:100590004FC0823009F45FC0813009F035C08091CE
:1005A0008100887F816080938100D0928900C09211
:1005B00088008092140190921501A0921601B092C9
:1005C000170180916F00826080936F006BCF109253
:1005D000800010928100909181009860909381003A
:1005E00090918100916090938100F8019491E92F9E
:1005F000F0E0EE0FFF1FE656FF4F25913491FE010C
:10060000949190930E01A9CF823009F04BCF8AE0EC
:100610008093B3008092100190921101A092120178
:10062000B0921301809170008260809370003ACF85
:1006300085B5887F846085BD57BC809218019092F3
:100640001901A0921A01B0921B0180916E00826084
:1006500080936E0027CF8091B100887F8660809361
:0C066000B1008DE8D5CFF894FFCFFF006B
:107E0000112484B714BE81FFF0D085E080938100F7
:107E100082E08093C00088E18093C10086E0809377
:107E2000C20080E18093C4008EE0C9D0259A86E02C
:107E300020E33CEF91E0309385002093840096BBD3
:107E4000B09BFECF1D9AA8958150A9F7CC24DD24C4
:107E500088248394B5E0AB2EA1E19A2EF3E0BF2EE7
:107E6000A2D0813461F49FD0082FAFD0023811F036
:107E7000013811F484E001C083E08DD089C08234E0
:107E800011F484E103C0853419F485E0A6D080C0E4
:107E9000853579F488D0E82EFF2485D0082F10E0AE
:107EA000102F00270E291F29000F111F8ED06801E7
:107EB0006FC0863521F484E090D080E0DECF843638
:107EC00009F040C070D06FD0082F6DD080E0C81688
:107ED00080E7D80618F4F601B7BEE895C0E0D1E017
:107EE00062D089930C17E1F7F0E0CF16F0E7DF06D8
:107EF00018F0F601B7BEE89568D007B600FCFDCFD4
:107F0000A601A0E0B1E02C9130E011968C91119780
:107F100090E0982F8827822B932B1296FA010C0160
:107F200087BEE89511244E5F5F4FF1E0A038BF0790
:107F300051F7F601A7BEE89507B600FCFDCF97BE46
:107F4000E89526C08437B1F42ED02DD0F82E2BD052
:107F50003CD0F601EF2C8F010F5F1F4F84911BD097
:107F6000EA94F801C1F70894C11CD11CFA94CF0C13
:107F7000D11C0EC0853739F428D08EE10CD085E9AC
:107F80000AD08FE07ACF813511F488E018D01DD067
:107F900080E101D065CF982F8091C00085FFFCCF94
:107FA0009093C60008958091C00087FFFCCF809118
:107FB000C00084FD01C0A8958091C6000895E0E648
:107FC000F0E098E1908380830895EDDF803219F02E
:107FD00088E0F5DFFFCF84E1DECF1F93182FE3DFCA
:107FE0001150E9F7F2DF1F91089580E0E8DFEE27F6
:047FF000FF270994CA
:027FFE00040479
:00000001FF
