:100000000C9462000C948A000C948A000C948A0070
:100010000C948A000C948A000C948A000C948A0038
:100020000C948A000C948A000C948A000C948A0028
:100030000C948A000C948A000C948A000C948A0018
:100040000C942F060C948A000C94FD050C94D70593
:100050000C948A000C948A000C948A000C948A00F8
:100060000C9479060C948A000000000025002800FA
:100070002B00040404040404040402020202020229
:10008000030303030303010204081020408001025C
:1000900004081020010204081020000000080002DB
:1000A0000100000304070000000000000000436F8F
:1000B000756C646E27742066696E64205254430028
:1000C0009807BF0911241FBECFEFD8E0DEBFCDBF18
:1000D00023E0A0ECB1E001C01D92A23AB207E1F723
:1000E00011E0A0E0B1E0E8E7F8E102C005900D9270
:1000F000A03CB107D9F710E0C1E6D0E004C02197D9
:10010000FE010E94370AC036D107C9F70E94420893
:100110000C942F0C0C94000008950895AF92BF9298
:10012000CF92DF92EF92FF920F931F93CF93DF93C3
:100130006C017B018B01040F151FEB015E01AE18F2
:10014000BF08C017D10759F06991D601ED91FC9114
:100150000190F081E02DC6010995892B79F7C50141
:10016000DF91CF911F910F91FF90EF90DF90CF9093
:10017000BF90AF900895FC01538D448D252F30E042
:10018000842F90E0821B930B541710F0CF960895A4
:1001900001970895FC01918D828D981761F0A28DD1
:1001A000AE0FBF2FB11D5D968C91928D9F5F9F7397
:1001B000928F90E008958FEF9FEF0895FC01918D4D
:1001C000828D981731F0828DE80FF11D858D90E0BA
:1001D00008958FEF9FEF0895FC01918D228D892F57
:1001E00090E0805C9F4F821B91098F73992708953F
:1001F00083E892E00E94EC0021E0892B09F420E0E2
:10020000822F089580E090E0892B29F00E94F80069
:1002100081110C9400000895FC01A48DA80FB92F42
:10022000B11DA35ABF4F2C91848D90E001968F731E
:100230009927848FA689B7892C93A089B1898C913D
:10024000837080648C93938D848D981306C002888C
:10025000F389E02D80818F7D80830895EF92FF9256
:100260000F931F93CF93DF93EC0181E0888F9B8DD9
:100270008C8D98131AC0E889F989808185FF15C093
:100280009FB7F894EE89FF896083E889F9898081B6
:100290008370806480839FBF81E090E0DF91CF9185
:1002A0001F910F91FF90EF900895F62E0B8D10E0A7
:1002B0000F5F1F4F0F731127E02E8C8D8E110CC016
:1002C0000FB607FCFACFE889F989808185FFF5CF61
:1002D000CE010E940C01F1CFEB8DEC0FFD2FF11D33
:1002E000E35AFF4FF0829FB7F8940B8FEA89FB899E
:1002F00080818062CFCFCF93DF93EC01888D8823FC
:10030000B9F0AA89BB89E889F9898C9185FD03C078
:10031000808186FD0DC00FB607FCF7CF8C9185FF5D
:10032000F2CF808185FFEDCFCE010E940C01E9CF95
:10033000DF91CF91089590E0FC01E656FF4F2491A4
:10034000FC01EA57FF4F3491FC01EE58FF4FE49156
:10035000EE23C9F0222339F0233001F1A8F4213033
:1003600019F1223029F1F0E0EE0FFF1FE859FF4F9D
:10037000A591B4918FB7F894EC91611126C0309596
:100380003E233C938FBF08952730A9F02830C9F051
:10039000243049F7809180008F7D03C080918000D8
:1003A0008F7780938000DFCF84B58F7784BDDBCFDC
:1003B00084B58F7DFBCF8091B0008F778093B000A4
:1003C000D2CF8091B0008F7DF9CF3E2BDACF3FB7EF
:1003D000F8948091090290910A02A0910B02B091C9
:1003E0000C0226B5A89B05C02F3F19F00196A11D50
:1003F000B11D3FBFBA2FA92F982F8827BC01CD016F
:10040000620F711D811D911D42E0660F771F881FCD
:10041000991F4A95D1F708958F929F92AF92BF92FC
:10042000CF92DF92EF92FF920E94E7014B015C01B5
:1004300088EEC82E83E0D82EE12CF12C0E94E70133
:10044000681979098A099B09683E734081059105FD
:10045000A8F321E0C21AD108E108F10888EE880E5D
:1004600083E0981EA11CB11CC114D104E104F10465
:1004700029F7FF90EF90DF90CF90BF90AF909F90C3
:100480008F9008952091E101260F3327331F2132E9
:100490003105ECF420915902FC0190E080E0243019
:1004A00069F082E00895A091E1012191AC014F53E0
:1004B0005E4FA40FB52FB11D2C930196861798F3AC
:1004C0008091E101680F6093E10180E0089581E08F
:1004D00008951092590281E08093580210923302DD
:1004E00061E082E10E949B0161E083E10E949B0147
:1004F000E9EBF0E080818E7F808380818D7F808337
:1005000088E48093B80085E48093BC000895CF937D
:10051000DF9391E09093C0018823B9F0C091B800B7
:10052000D091BA008091BC008A7B8093BC0060E0CF
:1005300082E10E949B0160E083E10E949B010E9496
:100540006902D093BA00C093B800DF91CF910895AB
:10055000CF92DF92EF92FF920F931F93CF93DF938F
:10056000D091820281E0D13208F09CC0C09181021A
:100570000E94E7016B017C018091590281116CC0DE
:1005800082E08093590281E0809358028FEF80933C
:10059000570210925602D0935502A1E6B2E0E5E36D
:1005A000F2E080E0D8138DC01092340280913402C2
:1005B000CC0FC82BC093340280913302813009F0F4
:1005C00084C0109233020E94E7016B017C0180918C
:1005D00034028093BB0080915B0290915C02A091F9
:1005E0005D02B0915E02892B8A2B8B2BA1F00E94B9
:1005F000E70100915B0210915C0220915D02309155
:100600005E026C197D098E099F09061717072807D6
:10061000390708F442C08091BC0083FDD8CF85EC37
:100620008093BC000E94E7016B017C01809159021C
:10063000823009F44CC0809157028F3F09F469C0A1
:1006400080915702803209F466C08091570280334E
:1006500009F463C084E026C080915B0290915C0243
:10066000A0915D02B0915E02892B8A2B8B2B09F43D
:1006700083CF0E94E70100915B0210915C02209100
:100680005D0230915E026C197D098E099F09061783
:1006900017072807390708F06FCF80915A020E9488
:1006A000870285E0109260021092820210925F022F
:1006B000DF91CF911F910F91FF90EF90DF90CF903E
:1006C00008959D9191938F5F6DCF85EEA9CF809115
:1006D0005B0290915C02A0915D02B0915E02892B59
:1006E0008A2B8B2B09F4A2CF0E94E70100915B02B9
:1006F00010915C0220915D0230915E026C197D09BF
:100700008E099F09061717072807390708F08ECFAB
:10071000C4CF80E0C7CF82E0C5CF83E0C3CFCF9204
:10072000DF92EF92FF920F931F93CF93DF93D82F17
:10073000C62F613208F098C00E94E7016B017C016E
:100740008091590281116BC081E08093590280939E
:1007500058029FEF90935702109256029C0F90936D
:1007600055028093340280913402DD0FD82BD09350
:10077000340280913302813009F078C01092330244
:100780000E94E7016B017C01809134028093BB00E1
:1007900080915B0290915C02A0915D02B0915E023B
:1007A000892B8A2B8B2BA1F00E94E70100915B0221
:1007B00010915C0220915D0230915E026C197D09FE
:1007C0008E099F09061717072807390708F448C03C
:1007D0008091BC0083FDD8CF85EC8093BC000E9443
:1007E000E7016B017C0180915902813009F440C01E
:1007F000809156028C1710F4C0915602E5E3F2E0A6
:10080000A3E1B2E080E08C1355C08C2FDF91CF9133
:100810001F910F91FF90EF90DF90CF9008958091FE
:100820005B0290915C02A0915D02B0915E02892B07
:100830008A2B8B2B09F484CF0E94E70100915B0285
:1008400010915C0220915D0230915E026C197D096D
:100850008E099F09061717072807390708F070CF78
:1008600080915A020E948702C0E0CFCF85EEB5CFBB
:1008700080915B0290915C02A0915D02B0915E025A
:10088000892B8A2B8B2B09F4AECF0E94E7010091B4
:100890005B0210915C0220915D0230915E026C1946
:1008A0007D098E099F09061717072807390708F0E1
:1008B0009ACFD6CF91919D938F5FA5CF0895E09168
:1008C000120280911102E81730F4F0E0ED5EFD4F66
:1008D000808190E008958FEF9FEF0895909112022C
:1008E000809111022FEF3FEF981748F4E92FF0E0C5
:1008F000ED5EFD4F208130E09F5F90931202C901B1
:1009000008958091110290911202891B990B08950C
:10091000CF92DF92EF92FF920F931F93CF93DF93CB
:100920007C01CB018A0120915F02222389F0EB0137
:100930006B01C40ED51ECC15DD0569F06991D70198
:10094000ED91FC910190F081E02DC7010995F3CF65
:10095000642F0E944202C801DF91CF911F910F9135
:10096000FF90EF90DF90CF900895CF93DF931F9289
:10097000CDB7DEB7698320915F022223F9F0209181
:100980008202203258F021E030E0FC0133832283E0
:1009900090E080E00F90DF91CF9108958091600208
:1009A000E82FF0E0EF59FD4F998190838F5F80939E
:1009B00060028093820281E090E0ECCF61E0CE01A2
:1009C00001960E944202F7CF90E080E0089581E016
:1009D00080935F0288E680938102109260021092F9
:1009E00082026FE080E293E00E94B5040E94A802B8
:1009F00061E088E60E948F03109212028093110238
:100A000080E293E00E946E040895FC0101900020B2
:100A1000E9F73197AF01481B590BBC0183E892E01D
:100A20000C948E008F929F92AF92BF920F931F9360
:100A3000CF93DF93CDB7DEB7A1970FB6F894DEBFA3
:100A40000FBECDBF19A2423008F44AE08E010F5DFF
:100A50001F4F842E912CB12CA12CA50194010E9432
:100A6000150AE62FB901CA01EA30F4F4E05DD801B5
:100A7000EE938D01232B242B252B79F790E080E03A
:100A8000109719F0CD010E940505A1960FB6F894B4
:100A9000DEBF0FBECDBFDF91CF911F910F91BF90F1
:100AA000AF909F908F900895E95CE1CFEF92FF9215
:100AB0000F931F93CF93DF93EC017B011982188270
:100AC0001B821A821D821C82FB0101900020E9F723
:100AD00031978F01061B170BB8016F5F7F4F90E0B6
:100AE00080E00E94620B0097B9F0998388831B8392
:100AF0000A832C813D81232B11F4FC0110821D837C
:100B00000C83B70188819981DF91CF911F910F915B
:100B1000FF90EF900C94280C88819981009711F038
:100B20000E94D90A198218821D821C821B821A8295
:100B3000DF91CF911F910F91FF90EF90089585ED78
:100B40008093BC0080915B0290915C02A0915D0259
:100B5000B0915E020796A11DB11D23E0B695A79541
:100B6000979587952A95D1F72091BC0024FD03C065
:100B700010925902089540915B0250915C0260917D
:100B80005D0270915E02452B462B472B69F300975F
:100B9000A105B10541F025E32A95F1F70000019781
:100BA000A109B109E1CF80915A020C9487021F92EA
:100BB0000F920FB60F9211242F933F934F935F9391
:100BC0006F937F938F939F93AF93BF93EF93FF9315
:100BD00083E892E00E940C01FF91EF91BF91AF91E9
:100BE0009F918F917F916F915F914F913F912F9145
:100BF0000F900FBE0F901F9018951F920F920FB677
:100C00000F9211242F938F939F93EF93FF93E09173
:100C10009302F09194028081E0919902F0919A02FE
:100C200082FD1BC0908180919C028F5F8F73209109
:100C30009D02821741F0E0919C02F0E0ED57FD4FDC
:100C4000958F80939C02FF91EF919F918F912F91AF
:100C50000F900FBE0F901F9018958081F4CF1F92B8
:100C60000F920FB60F9211242F933F938F939F9360
:100C7000AF93BF938091050290910602A091070265
:100C8000B09108023091040223E0230F2D3758F56C
:100C90000196A11DB11D209304028093050290933B
:100CA0000602A0930702B093080280910902909176
:100CB0000A02A0910B02B0910C020196A11DB11D78
:100CC0008093090290930A02A0930B02B0930C0246
:100CD000BF91AF919F918F913F912F910F900FBE38
:100CE0000F901F90189526E8230F0296A11DB11DA5
:100CF000D2CF1F920F920FB60F9211242F933F93D2
:100D00004F935F936F937F938F939F93AF93BF9313
:100D1000EF93FF938091B900887F803609F44AC031
:100D2000F0F5883209F4A7C018F5803109F49BC0AA
:100D3000B8F4882309F4F9C0883009F494C0FF910D
:100D4000EF91BF91AF919F918F917F916F915F9143
:100D50004F913F912F910F900FBE0F901F901895BC
:100D6000883109F488C0803251F78093570214C04B
:100D7000803409F49DC040F48033B9F38833F9F628
:100D80008093570285ECB0C0803509F485C0883562
:100D900009F496C0883499F60E949F05D0CF88390F
:100DA00009F48CC038F5883729F050F4883611F0F2
:100DB000803729F683E0809359021092030257C0CE
:100DC000883809F47BC0803919F0803809F0B7CF32
:100DD00080910302803208F071C0E091030281E04B
:100DE0008E0F809303028091BB00F0E0ED51FE4F27
:100DF00080833DC0803B39F0E0F4803A09F479C04B
:100E0000883A09F09CCF84E0809359021092E20165
:100E10001092E101E0910F02F0911002099580918A
:100E2000E10181110FC081E08093E1011092C101C5
:100E300009C0803C09F4A6CF883C09F4A3CF883BC5
:100E400009F07DCFE091E20181E08E0F8093E20115
:100E5000F0E0EF53FE4F80818093BB009091E20160
:100E60008091E10129C0809134028093BB0085EC20
:100E70008093BC0064CF90915602809155029817E0
:100E800058F5E091560281E08E0F80935602F0E013
:100E9000EB5CFD4F8081E9CFE091560281E08E0F3F
:100EA000809356028091BB00F0E0EB5CFD4F8083A5
:100EB00090915602809155029817C8F285E8D8CFD4
:100EC000E091560281E08E0F809356028091BB0024
:100ED000F0E0EB5CFD4F80838091580281115CCF84
:100EE00081E08093330284EA8093BC00109259021F
:100EF00026CF85EC8093BC001092590280910302AA
:100F0000803230F4E0910302F0E0ED51FE4F1082A8
:100F10006091030270E0E0910D02F0910E0283EE09
:100F200091E00995109203020ACF1092570234CF34
:100F3000E3E8F2E01382128288EE93E0A0E0B0E0F2
:100F400084839583A683B7832AE031E031832083AD
:100F500025EC30E03587248724EC30E0378726877E
:100F600020EC30E0318B208B21EC30E0338B228B76
:100F700022EC30E0358B248B26EC30E0378B268B4F
:100F8000118E128E138E148EE0E2F3E01382128221
:100F900084839583A683B7838CE191E091838083DA
:100FA0006AE271E084E793E00E94560562E371E033
:100FB0008AE793E00E94560568E371E080E893E0D9
:100FC0000E9456056FE371E086E893E00E945605A3
:100FD00069E471E08CE893E00E94560560E571E0F9
:100FE00082E993E00E94560568E571E088E993E0A4
:100FF0000E9456056FE571E08CE293E00E94560571
:1010000065E671E082E393E00E9456056DE671E0CB
:1010100088E393E00E94560563E771E08EE393E076
:101020000E94560569E771E084E493E00E9456054A
:101030006EE771E08AE493E00E94560564E871E08F
:1010400080E593E00E9456056AE871E086E593E04A
:101050000E94560561E971E08CE593E00E94560517
:101060006CE971E082E693E00E94560564EA71E063
:1010700088E693E00E9456056EEA71E08EE693E002
:101080000C945605789484B5826084BD84B58160E3
:1010900084BD85B5826085BD85B5816085BD809143
:1010A0006E00816080936E001092810080918100BB
:1010B00082608093810080918100816080938100B3
:1010C000809180008160809380008091B100846075
:1010D0008093B1008091B00081608093B0008091D6
:1010E0007A00846080937A0080917A008260809395
:1010F0007A0080917A00816080937A0080917A00F2
:10110000806880937A001092C100E0919302F09180
:10111000940282E08083E0918F02F091900210822D
:10112000E0919102F09192028FEC808310929B02E9
:10113000E0919702F091980286E08083E091950219
:10114000F0919602808180618083E0919502F09118
:101150009602808188608083E0919502F0919602EA
:10116000808180688083E0919502F0919602808171
:101170008F7D80830E940C02109212021092110245
:1011800010926002109282020E9469028CE890E044
:101190009093100280930F028DE890E090930E02DE
:1011A00080930D0211E010935F02D8E6D093810284
:1011B0000E94A8028111D1C00E94E70490E0880F2C
:1011C000892F881F990B892B09F44AC010935F025D
:1011D000D0938102109260021092820260E080E25D
:1011E00093E00E94B50460E080E293E00E94B504C1
:1011F00060E180E293E00E94B50460E280E293E067
:101200000E94B50460E080E293E00E94B50468E2C9
:1012100080E293E00E94B50466E080E293E00E94E1
:10122000B50462E280E293E00E94B5040E94A80245
:101230000E94E704C82F10935F02D093810210929E
:101240006002109282026FE080E293E00E94B50497
:101250006C2F6F7780E293E00E94B5040E94A80291
:1012600001E058E6F52EC0E0D0E000935F02F09276
:101270008102109260021092820260E080E293E0AC
:101280000E94B5040E94A80267E088E60E948F03CE
:10129000109212028093110280E293E00E946E0489
:1012A0008F77282F30E094E0359527959A95E1F7D0
:1012B000922F990F990F122F191B110F180F80E2FF
:1012C00093E00E946E0480E293E00E946E0480E24C
:1012D00093E00E946E0480E293E00E946E0480E23C
:1012E00093E00E946E0480E293E00E946E049C01F1
:1012F00044E0359527954A95E1F72F703327922FD3
:10130000990F990F622F691B660F860F682F70E087
:101310006053784F072E000C880B990B4AE00E940F
:1013200012058BEB91E00E940505612F70E090E0C3
:1013300080E04AE00E94120588EB91E00E940505DA
:101340000E940C02209709F490CF0E94F800882395
:1013500009F48BCF0E94000088CFCEEAD0E0FE01D6
:101360006491662339F083E892E00E942E01219671
:10137000892BA9F788EB91E00E940505FFCFCF9359
:10138000DF93C4E7D3E0269788819981009711F015
:101390000E94D90A83E0CC32D807A9F7CEE9D3E07E
:1013A000269788819981009711F00E94D90A83E0DD
:1013B000C437D807A9F7DF91CF9108952F923F92B4
:1013C0004F925F926F927F928F929F92AF92BF9255
:1013D000CF92DF92EF92FF920F931F93CF93DF9301
:1013E000CDB7DEB7CA1BDB0B0FB6F894DEBF0FBE5E
:1013F000CDBF09942A88398848885F846E847D84AB
:101400008C849B84AA84B984C884DF80EE80FD80AC
:101410000C811B81AA81B981CE0FD11D0FB6F89422
:10142000DEBF0FBECDBFED010895A1E21A2EAA1BAB
:10143000BB1BFD010DC0AA1FBB1FEE1FFF1FA21784
:10144000B307E407F50720F0A21BB30BE40BF50B81
:10145000661F771F881F991F1A9469F7609570950A
:10146000809590959B01AC01BD01CF010895EE0FD1
:10147000FF1F0590F491E02D09940F931F93CF93D4
:10148000DF938230910510F482E090E0E091A003B8
:10149000F091A10330E020E0B0E0A0E0309799F4B3
:1014A0002115310509F44AC0281B390B24303105B8
:1014B000D8F58A819B816115710589F1FB019383C0
:1014C0008283FE0111C0408151810281138148173E
:1014D0005907E0F04817590799F4109761F01296F0
:1014E0000C93129713961C933296CF01DF91CF91F4
:1014F0001F910F9108950093A0031093A103F4CFBF
:101500002115310551F04217530738F0A901DB01CD
:101510009A01BD01DF01F801C1CFEF01F9CF90932E
:10152000A1038093A003CDCFFE01E20FF31F8193AF
:1015300091932250310939832883D7CF20919E037C
:1015400030919F03232B41F420910201309103013C
:1015500030939F0320939E0320910001309101015D
:101560002115310541F42DB73EB74091040150914A
:101570000501241B350BE0919E03F0919F03E217B8
:10158000F307A0F42E1B3F0B2817390778F0AC01A6
:101590004E5F5F4F2417350748F04E0F5F1F509383
:1015A0009F0340939E03819391939FCFF0E0E0E0EF
:1015B0009CCFCF93DF930097E9F0FC013297138221
:1015C0001282A091A003B091A103ED0130E020E0D0
:1015D0001097A1F420813181820F931F20919E03E7
:1015E00030919F032817390709F061C0F0939F03DA
:1015F000E0939E03DF91CF910895EA01CE17DF07B4
:10160000E8F54A815B819E0141155105B1F7E90179
:10161000FB83EA8349915991C40FD51FEC17FD074D
:1016200061F4808191810296840F951FE90199836D
:101630008883828193819B838A83F0E0E0E0129625
:101640008D919C9113970097B9F52D913C9111972D
:10165000CD010296820F931F20919E0330919F032C
:101660002817390739F6309751F51092A1031092D7
:10167000A003B0939F03A0939E03BCCFD383C283E8
:1016800040815181840F951FC817D90761F44E5FBF
:101690005F4F88819981480F591F518340838A8108
:1016A0009B81938382832115310509F0B0CFF0939C
:1016B000A103E093A0039ECFFD01DC01C0CF138204
:1016C0001282D7CFB0E0A0E0E8E6FBE00C94E0099E
:1016D0008C01009751F4CB010E943D0A8C01C80196
:1016E000CDB7DEB7E0E10C94FC09FC01E60FF71F73
:1016F0009C0122503109E217F30708F49DC0D9017B
:10170000CD91DC911197C617D70798F0C530D10558
:1017100030F3CE0104978617970708F3C61BD70B43
:101720002297C193D1936D937C93CF010E94D90AE4
:10173000D6CF5B01AC1ABD0A4C018C0E9D1EA09148
:10174000A003B091A103512C412CF12CE12C109756
:1017500031F580919E0390919F038815990509F0BA
:101760005CC04616570608F058C080910001909161
:101770000101009741F48DB79EB74091040150914B
:101780000501841B950BE817F90708F055C0F09385
:101790009F03E0939E03F90171836083A0CF8D9135
:1017A0009C91119712966C90129713967C901397B8
:1017B000A815B90559F56C0142E0C40ED11CCA1434
:1017C000DB0420F1AC014A195B09DA011296159786
:1017D00080F06282738251834083D9016D937C9340
:1017E000E114F10471F0D7011396FC93EE93129774
:1017F00076CF22968C0F9D1FF90191838083F30190
:10180000EFCFF093A103E093A00369CF48165906E8
:1018100008F42C017D01D3019ACFCB010E943D0A2F
:101820007C01009749F0AE01B8010E941F0CC8016D
:101830000E94D90A870153CF10E000E050CFFB018E
:10184000DC0102C001900D9241505040D8F708953C
:10185000FB01DC0101900D920020E1F7089510E0FA
:10186000C1E6D0E004C0FE010E94370A2196C236CC
:08187000D107C9F7F894FFCF7E
:101878000000A2038000000000002E018E00BB00C3
:101888007B01EC00CA00DE0000000000B5048804FB
:10189800E4045E0481046E045F04446F6D696E673E
:1018A8006F004C756E6573004D6172746573004D01
:1018B800696572636F6C6573004A75657665730058
:1018C800566965726E65730053616261646F0045A5
:1018D8006E65726F004665627265726F004D617267
:1018E8007A6F00416272696C004D61796F004A75C8
:1018F8006E696F004A756C696F0041676F73746F2A
:10190800005365707469656D627265004F63747524
:10191800627265004E6F7669656D62726500446932
:101928006369656D627265000D0A00202D20000054
:00000001FF
